S02B0000467265715F616E645F447574795F4379636C655F4D6561737572655F776974685F4943552E7372655C
S11300000C9434000C9451000C9451000C94510045
S11300100C9451000C9451000C9451000C94510018
S11300200C9451000C9451000C94F6010C94510062
S11300300C9451000C9451000C9451000C945100F8
S11300400C9451000C9451000C9451000C945100E8
S11300500C9451000C9451000C9451000C945100D8
S11300600C9451000C94510011241FBECFEFD8E022
S1130070DEBFCDBF11E0A0E0B1E0E2E6F8E002C0EF
S113008005900D92A634B107D9F721E0A6E4B1E0BA
S113009001C01D92AE34B207E1F70E9418010C941E
S11300A02F040C940000982F907F9BB9409841989E
S11300B0429AEFE8F1E03197F1F700C0000042986E
S11300C0EFEAF4E03197F1F700C000008295807FF9
S11300D08BB9429A8FE891E00197F1F700C00000D4
S11300E04298EFEAF4E03197F1F700C00000089578
S11300F0982F907F9BB9409A4198429A95E89A9597
S1130100F1F700004298E7ECF0E03197F1F700C016
S113011000008295807F8BB9429AF5E8FA95F1F751
S11301200000429887EC90E00197F1F700C00000CE
S1130130089580EF8AB987E087B942988FE99FE0F4
S11301400197F1F700C0000083E30E94530082E3AB
S11301500E94530088E20E9453008FE00E945300E3
S11301608FE097E20197F1F700C0000081E00E9460
S113017053008FE097E20197F1F700C0000080E898
S11301800E9453008FE097E20197F1F700C000004E
S113019086E00E9453008FE097E20197F1F700C0D8
S11301A000000895CF93DF93CDB7DEB7A0970FB6C5
S11301B0F894DEBF0FBECDBF90E2E0E0F1E0DE01D7
S11301C0119601900D929A95E1F7E1E0F0E0EC0FC1
S11301D0FD1F90E1899FE00DF11D1124E60FF11D33
S11301E080810E94530087EC90E00197F1F700C0F2
S11301F00000A0960FB6F894DEBF0FBECDBFDF910E
S1130200CF9108950F931F93CF93FC01808188238E
S113021059F08F01C0E00E947800CF5FF801EC0F25
S1130220F11D80818111F7CFCF911F910F91089516
S1130230CF93DF93CDB7DEB765970FB6F894DEBFE3
S11302400FBECDBFE1E8F0E08081806880838081CB
S113025082608083808180648083EFE6F0E0808127
S1130260806280830E9499008CE00E94530080E2A7
S113027091E00E9402012FEF84E39CE02150804032
S11302809040E1F700C0000078940F2E812CF2E139
S11302909F2EFAE7AF2EB12CF02D0F2EF4E8EF2E9F
S11302A0F12CF02D80914D018823E1F3F8946091B5
S11302B046017091470140914B0150914C010091CE
S11302C0490110914A01E0914B01F0914C012091B8
S11302D04B0130914C0180914601909147012817C0
S11302E0390708F07AC02091460130914701809186
S11302F0490190914A012817390708F06EC00E1B76
S11303001F0B641B750B80E090E00E94DD022B0143
S11303103C01B80180E090E00E94DD029B01AC0149
S1130320C301B2010E943C0220E030E048EC52E4F8
S11303300E946B030E94AE02862F4AE0BE01615FF9
S11303407F4F90E00E94FA039801220F331F220F7F
S1130350331F220F331F40E050E0C501B4010E9457
S1130360D803DA01C9014AE0BE016F5F7F4F0E94E2
S1130370FA0381E00E945300EFECF7E03197F1F7C4
S113038000C0000081E391E00E940201CE010196C9
S11303900E94020188E391E00E94020160E081E092
S11303A00E94D2008FEC97E00197F1F700C00000A3
S11303B08CE391E00E940201CE010F960E9402019B
S11303C083E491E00E9402019FEFE9E6F8E1915095
S11303D0E040F040E1F700C00000109248011092A4
S11303E04D01F7011182108278945CCF1F920F9215
S11303F00FB60F9211248F939F93EF93FF938091E5
S113040048018F5F8093480180914801823091F0C8
S11304108330F1F0813039F5809186009091870026
S113042090934C0180934B01E1E8F0E080818F7B55
S1130430808319C080918600909187009093470132
S113044080934601E1E8F0E08081806480830BC002
S1130450809186009091870090934A01809349018E
S113046081E080934D01FF91EF919F918F910F90C7
S11304700FBE0F901F9018950E9450020C943103E8
S11304800E942A0358F00E94230340F029F45F3F9E
S113049029F00C941A0351110C9465030C94200355
S11304A00E94420368F39923B1F3552391F3951BFA
S11304B0550BBB27AA2762177307840738F09F5F81
S11304C05F4F220F331F441FAA1FA9F335D00E2EEE
S11304D03AF0E0E832D091505040E695001CCAF75B
S11304E02BD0FE2F29D0660F771F881FBB1F26171E
S11304F037074807AB07B0E809F0BB0B802DBF01F5
S1130500FF2793585F4F3AF09E3F510578F00C94C3
S11305101A030C9465035F3FE4F3983ED4F3869585
S113052077956795B795F7959F5FC9F7880F911DE4
S11305309695879597F90895E1E0660F771F881FD0
S1130540BB1F621773078407BA0720F0621B730B83
S1130550840BBA0BEE1F88F7E09508950E944A03B6
S113056088F09F5798F0B92F9927B751B0F0E1F070
S1130570660F771F881F991F1AF0BA95C9F714C020
S1130580B13091F00E946403B1E008950C946403C7
S1130590672F782F8827B85F39F0B93FCCF3869559
S11305A077956795B395D9F73EF4909580957095B6
S11305B061957F4F8F4F9F4F0895E89409C097FB33
S11305C03EF490958095709561957F4F8F4F9F4F26
S11305D09923A9F0F92F96E9BB279395F69587956A
S11305E077956795B795F111F8CFFAF4BB0F11F42D
S11305F060FF1BC06F5F7F4F8F4F9F4F16C08823D4
S113060011F096E911C0772321F09EE8872F762F09
S113061005C0662371F096E8862F70E060E02AF04A
S11306209A95660F771F881FDAF7880F9695879536
S113063097F9089597F99F6780E870E060E008955E
S11306409FEF80EC089500240A94161617061806E6
S11306500906089500240A941216130614060506C2
S11306600895092E0394000C11F4882352F0BB0F53
S113067040F4BF2B11F460FF04C06F5F7F4F8F4FB6
S11306809F4F089557FD9058440F551F59F05F3FF1
S113069071F04795880F97FB991F61F09F3F79F0A0
S11306A087950895121613061406551FF2CF469522
S11306B0F1DF08C0161617061806991FF1CF8695A4
S11306C07105610508940895E894BB276627772788
S11306D0CB0197F908950E947E030C9431030E9484
S11306E0230338F00E942A0320F0952311F00C9480
S11306F01A030C94200311240C9465030E944203F2
S113070070F3959FC1F3950F50E0551F629FF00160
S1130710729FBB27F00DB11D639FAA27F00DB11D79
S1130720AA1F649F6627B00DA11D661F829F222702
S1130730B00DA11D621F739FB00DA11D621F839F89
S1130740A00D611D221F749F3327A00D611D231F5F
S1130750849F600D211D822F762F6A2F11249F57AD
S113076050409AF0F1F088234AF0EE0FFF1FBB1FB0
S1130770661F771F881F91505040A9F79E3F51056F
S113078080F00C941A030C9465035F3FE4F3983EE5
S1130790D4F3869577956795B795F795E7959F5F19
S11307A0C1F7FE2B880F911D9695879597F90895AB
S11307B0A1E21A2EAA1BBB1BFD010DC0AA1FBB1F61
S11307C0EE1FFF1FA217B307E407F50720F0A21BD3
S11307D0B30BE40BF50B661F771F881F991F1A9440
S11307E069F760957095809590959B01AC01BD016A
S11307F0CF010895BB274A3031F4992322F4BDE296
S1130800909581959F4F0C940604BB27FB015527B7
S1130810AA27880F991FAA1FA41710F0A41B839559
S11308205051B9F7A05DAA3308F0A95DA1930097D0
S113083079F7B111B1931192CB010C941F04DC012F
S1130840FC01672F71917723E1F7329704C07C9103
S11308506D9370836291AE17BF07C8F30895F8943F
S1050860FFCFC4
S1130862808182838485868788898A8B8C8D8E8F0A
S1130872C0C1C2C3C4C5C6C7C8C9CACBCCCDCECFFA
S11308825369676E616C204D6561737572696E6739
S113089200467265713A200020487A0044757479E2
S10908A23A2000202500AD
S9030000FC
